:020000040800F2
:1000000010040020C10100080904000805040008CC
:100010000704000809020008110800080000000099
:10002000000000000000000000000000ED050008D6
:100030000B020008000000000B040008C5060008C1
:10004000DB010008DB010008DB010008DB01000820
:10005000DB010008DB010008DB010008DB01000810
:10006000DB010008DB010008DB010008DB01000800
:10007000DB010008DB010008DB010008DB010008F0
:10008000DB010008DB010008DB010008DB010008E0
:10009000DB010008DB010008DB010008DB010008D0
:1000A000DB010008DB010008DB010008DB010008C0
:1000B000DB010008DB010008DB010008DB010008B0
:1000C000DB010008DB010008DB010008DB010008A0
:1000D000DB010008DB010008DB010008DB01000890
:1000E000DB010008DB010008DB010008DB01000880
:1000F000DB010008DB010008DB010008DB01000870
:10010000DB010008DB010008DB010008DB0100085F
:10011000DB010008DB010008DB010008DB0100084F
:10012000DB010008DB010008DB010008DB0100083F
:10013000DB010008DB010008DB010008DB0100082F
:10014000DB010008DB010008DB010008DB0100081F
:10015000DB010008DB010008DB010008DB0100080F
:10016000DB010008DB010008DB010008DB010008FF
:10017000DB010008DB010008DB010008DB010008EF
:10018000DB010008DB010008DB010008DB010008DF
:10019000DB010008DB010008DB010008DB010008CF
:1001A000DB010008DB010008DB010008DFF80CD0F0
:1001B00000F018F800480047490800081004002023
:1001C0000648804706480047FEE7FEE7FEE7FEE7F1
:1001D000FEE7FEE7FEE7FEE7FEE7FEE7C9060008EA
:1001E000AD010008064C074D06E0E06840F0010351
:1001F00094E8070098471034AC42F6D3FFF7DAFFD3
:100200007808000898080008FEE7704770B586B0C7
:100210000121082000F0FAF8204E0722092130467B
:1002200000F087F807220821304600F082F8002409
:100230008DF8164001208DF8170002258DF8155015
:100240008DF814500102049104A9304600F033F8EF
:100250008DF814502802049004A9304600F02BF8C1
:100260000121880400F0E0F84FF4E1300090ADF88F
:100270000440ADF80640ADF80840ADF80C400C2045
:10028000ADF80A00064C6946204600F05FFA0121ED
:10029000204600F047FA06B070BD0000000C024096
:1002A0000048004001B502E00098401E0090009810
:1002B0000028F9D108BD2DE9F041002201274FF0B7
:1002C000030C07FA02F50B682B40AB422CD10668F1
:1002D00053000CFA03F4A64306600E79D0F80080B0
:1002E0009E4046EA080606600E79012E01D0022ED5
:1002F00012D18668A64386604E79D0F808809E4069
:1003000046EA080686604668AE43466045688E79D0
:100310009640B6B235434560C568A543C560CC7903
:100320009C40C3681C43C460521C102AC9D3BDE85A
:10033000F08110B54B07DB0E9A40C90800EB810035
:10034000016A0F249C40A1430162016A11430162CA
:1003500010BD00002DE9FC4106460F4690461D46A3
:1003600000200190012000F0EBF800F027F9019047
:100370000198012800D0FEE71F48016841F0805134
:1003800001601E4C206840F440402060002000F0D6
:10039000CDF8A01400F0E6F84FF4A05000F0D8F823
:1003A00043463A4631464FF48000009500F0EAF8A3
:1003B000012000F0E1F8392000F094F80028FAD08C
:1003C000206840F4803020606068C003FCD520685D
:1003D00040F40030206060688003FCD5084940F29A
:1003E00005700860022000F0DFF800F097F8082898
:1003F000FBD1BDE8FC8100004038024000700040A5
:10040000003C0240FEE7FEE770477047054A0029BE
:1004100003D0116801431160704711688143116076
:100420007047000030380240054A002903D01168A7
:1004300001431160704711688143116070470000EB
:100440004038024070B5244B196801F00C01234C70
:1004500000291ED0661004291DD008291DD0046073
:10046000196801F0F00109091D4A545C0168E14076
:1004700041601C6804F4E054A40A145D21FA04F4F9
:1004800084601B6803F460435B0BD25CD140C160A5
:1004900070BD0460E4E70660E2E70F4A121F1168CE
:1004A000C1F38055116801F03F0135B1B6FBF1F1A0
:1004B0001468C4F38814614305E0B4FBF1F11468D7
:1004C000C4F3881461431268C2F30142521C520003
:1004D000B1FBF2F10160C3E7083802400024F400E8
:1004E0000000002002460020510901290BD00229FA
:1004F0000DD00949096802F01F02012393400B4205
:1005000000D001207047044974390968F3E70249B3
:10051000091F0968EFE700007438024002480068CC
:1005200000F00C007047000008380240034A1168D0
:1005300021F0F001014311607047000008380240CB
:10054000024900220A700870704700000238024019
:10055000034A116821F4E051014311607047000023
:1005600008380240034A116821F4604141EAC000A2
:100570001060704708380240014908667047000063
:100580000000474210B5029C41EA82114FF0FF3251
:1005900002EB530241EA0241014341EA046001498E
:1005A000086010BD04380240034A116821F00301BD
:1005B00001431160704700000838024018B5002060
:1005C00000904FF4A0443120FFF78CFF0099491CA4
:1005D00000910099A14201D00028F4D03120FFF70A
:1005E00081FF08B1012018BD002018BD7047000030
:1005F0001CB50021019100912E4A106840F4803012
:1006000010604FF4A043106800F40030009001988F
:10061000401C0190009810B901989842F3D11068DD
:10062000800302D50120009000E00091009801288D
:100630003FD120484030016841F0805101601E499F
:10064000086840F4404008601A48083003680360B6
:10065000036843F400430360036843F4A05303605A
:10066000041F164B2360136843F0807313601368F4
:100670009B01FCD50A6842F480320A604A68D203C2
:10068000FCD50A6842F400320A604A689203FCD53D
:100690000B4A40F205711160016821F0030101600D
:1006A000016841F0020101600168C1F38101022982
:1006B000FAD11CBD0038024000700040195A4007B2
:1006C000003C02407047000010B51248016841F438
:1006D000700101601048016841F0010101600E4A9B
:1006E00000210832116002680C4B1A400260031DA1
:1006F0000B4A1A60026822F48022026006480C301D
:100700000160FFF775FF03494FF000608039086012
:1007100010BD000088ED00E000380240FFFFF6FE4B
:1007200010300024002904D0818941F400518181D6
:100730007047818921F40051818170470246002071
:1007400012880A4200D00120704700007FB504469D
:100750000D46208A20F44051E88808432082A08971
:1007600041F20C618843A9882A8911436A890243AE
:100770001143A181A08A20F44071A8890843A08276
:100780006846FFF75FFE1E48844202D01D4884423F
:1007900001D1039800E00298A189090408D500EB73
:1007A000C00101EB001029684900B0FBF1F007E03F
:1007B00000EBC00101EB001029688900B0FBF1F0EB
:1007C0006422B0FBF2F109010B096FF018056B43CD
:1007D00000EB8300A3891D044FF0320307D503EB20
:1007E000C000B0FBF2F000F00700084306E003EBA6
:1007F0000010B0FBF2F000F00F00084320817FBD35
:100800000010014000140140C1F3080181807047CD
:10081000FEE710B504462046FFF7F6FF802120468C
:10082000FFF78CFF0028F9D010BD02E008C8121FA6
:1008300008C1002AFAD170477047002001E001C1C9
:10084000121F002AFBD17047072302224FF4A87120
:100850000820FFF77FFDFFF7D9FC054C054D01216E
:100860002046FFF7D6FF2846FFF71CFDF7E70000FC
:1008700000480040FFFF0F0098080008000000201B
:10088000100000002A080008A80800081000002036
:10089000000400003A080008000000000102030400
:0808A000010203040607080928
:04000005080001AD41
:00000001FF
