:020000040800F2
:1000000038060020C10100081B070008C5040008CD
:1000100019070008AB0200086D0F0008000000007F
:10002000000000000000000000000000F10A0008CD
:10003000AD0200080000000099070008A10C0008AC
:10004000DB010008DB010008DB010008DB01000820
:10005000DB010008DB010008DB010008DB01000810
:10006000DB010008DB010008DB010008DB01000800
:10007000DB010008DB010008DB010008DB010008F0
:10008000DB010008DB010008DB010008DB010008E0
:10009000DB010008DB010008DB010008DB010008D0
:1000A000DB010008DB010008DB010008DB010008C0
:1000B000DB010008DB010008DB010008DB010008B0
:1000C000DB010008DB010008DB010008DB010008A0
:1000D000DB010008DB010008DB010008DB01000890
:1000E000DB010008DB010008DB010008DB01000880
:1000F000DB010008DB010008DB010008DB01000870
:10010000DB010008DB010008DB010008DB0100085F
:10011000DB010008DB010008010D0008DB0100081D
:10012000DB010008DB010008DB010008DB0100083F
:10013000DB010008DB010008DB010008DB0100082F
:10014000DB010008DB010008DB010008DB0100081F
:10015000DB010008DB010008DB010008DB0100080F
:10016000DB010008DB010008DB010008DB010008FF
:10017000DB010008DB010008DB010008DB010008EF
:10018000DB010008DB010008DB010008DB010008DF
:10019000DB010008DB010008DB010008DB010008CF
:1001A000DB010008DB010008DB010008DFF80CD0F0
:1001B00000F04AF80048004789140008380600207B
:1001C0000648804706480047FEE7FEE7FEE7FEE7F1
:1001D000FEE7FEE7FEE7FEE7FEE7FEE7A50C000808
:1001E000AD0100082DE9F05F0546002092469B46D0
:1001F00088460646814640241BE02846414647463D
:10020000224600F042F853465A46C01A914110D394
:1002100011461846224600F029F82D1A67EB01080E
:100220004F4622460120002100F020F817EB00097C
:100230004E41201EA4F10104DFDC484631462A4627
:100240004346BDE8F09F0000064C074D06E0E0681D
:1002500040F0010394E8070098471034AC42F6D30D
:10026000FFF7A8FF88190008A8190008202A04DB56
:10027000203A00FA02F1002070479140C2F12003B9
:1002800020FA03F3194390407047202A04DB203AF8
:1002900021FA02F00021704721FA02F3D040C2F1A6
:1002A00020029140084319467047FEE7704700005E
:1002B00070B586B00121082000F070FA204E0722A8
:1002C0000921304600F094F807220821304600F05A
:1002D0008FF800248DF8164001208DF817000225B4
:1002E0008DF815508DF814500102049104A9304680
:1002F00000F040F88DF814502802049004A930460C
:1003000000F038F80121880400F056FA4FF4E1308B
:100310000090ADF80440ADF80640ADF80840ADF8E7
:100320000C400C20ADF80A00064C6946204600F04F
:10033000BBFD0121204600F0A3FD06B070BD00000A
:10034000000C02400048004031B5084C0098206085
:10035000074D0121284600F0EDFC21680029FCD161
:100360002846BDE8384000F0E5BC00001000002041
:10037000001000402DE9F041002201274FF0030C4E
:1003800007FA02F50B682B40AB422CD106685300EC
:100390000CFA03F4A64306600E79D0F800809E4064
:1003A00046EA080606600E79012E01D0022E12D10F
:1003B0008668A64386604E79D0F808809E4046EA5B
:1003C000080686604668AE43466045688E7996406A
:1003D000B6B235434560C568A543C560CC799C403D
:1003E000C3681C43C460521C102AC9D3BDE8F08105
:1003F00010B54B07DB0E9A40C90800EB8100016A7B
:100400000F249C40A1430162016A1143016210BDA7
:100410002DE9FC4106460F4690461D4600200190FE
:1004200000F0D8F9012000F07DFA00F0B9FA01904F
:100430000198012800D0FEE71F48016841F0805173
:1004400001601E4C206840F440402060002000F015
:100450005FFAA01400F078FA4FF4A05000F06AFAA6
:1004600043463A4631464FF48000009500F07CFA4E
:10047000012000F073FA392000F026FA0028FAD0A3
:10048000206840F4803020606068C003FCD520689C
:1004900040F40030206060688003FCD5084940F2D9
:1004A00005700860022000F071FA00F029FA0828AF
:1004B000FBD1BDE8FC8100004038024000700040E4
:1004C000003C0240FEE700001CB50121022000F0C4
:1004D00065F98020009001218DF8041000208DF82E
:1004E00006008DF807108DF8050069460148FFF7F2
:1004F00041FF1CBD0004024030B5102300220A4D0C
:100500000AE08C5C84EAD314E4B235F8244084EA2F
:1005100003239BB2521CD2B28242F2D34FF6FF7039
:1005200000EA430030BD00008815000870B525A022
:1005300000F01EFD00252A4E2AA000F019FD691CBE
:100540002AA000F015FD2BA000F012FD16F83500D2
:1005500001F012F829A000F00BFD06EBC50460784D
:1005600001F00AF825A000F003FDA07801F004F8DE
:1005700022A000F0FDFCE07800F0FEFF1FA000F0DC
:10058000F7FC207900F0F8FF1CA000F0F1FC607986
:1005900000F0F2FF1BA000F0EBFCA07900F0ECFFF4
:1005A00016A000F0E5FCE07900F0E6FF1AA000F0EC
:1005B000DFFC6D1C012DBFDBBDE8704007A000F023
:1005C000D7BC0000526563656976656420436F6E31
:1005D00066696775726174696F6E3A200A0000007F
:1005E000060000202049432000000000253032642E
:1005F000000000003A203078000000002C20307805
:10060000000000002C205265636569766564205007
:1006100045433A2030780000200000002DE9F041E9
:100620000546884616461F46002404E0285D00F073
:10063000D3F9641CE4B24445F8D3002404E000F08C
:10064000C7F93055641CE4B2BC42F8D3BDE8F08170
:1006500070B5044C10256583C820FFF775FE25830F
:1006600070BD00000000024070B5044C1025658389
:100670000A20FFF769FE258370BD000000000240DC
:100680002DE9F84F064688460027F400204600F082
:100690003DFF054600208DF8000002208DF8010086
:1006A0002B208DF802000A208DF80300FFF7D0FF01
:1006B000DFF860A04FF01009AAF81A90E3B22A46BA
:1006C00004216846FFF7AAFFAAF81890002419E051
:1006D000002308EBC40103EBC400285CC8545B1C76
:1006E000DBB2082BF7D3C8798A7900EB02201FFA16
:1006F00080F90620FFF700FF814501D04FF0FF375A
:10070000641CE4B2B442E3D3284600F095FE3846B8
:10071000BDE8F88F00000240FEE7704730B50F23B8
:10072000C27801250178002A1FD0154A126802F408
:10073000E062C2F5E062C2F30722C2F10404D340D2
:100740004278A24084781C401443220101F1E02148
:1007500081F80024007800F01F018D4040098000DE
:1007600000F1E020C0F8005130BD01F01F008540CD
:100770004809800000F1E020C0F8805130BD000041
:100780000CED00E002490843024908607047000090
:100790000000FA050CED00E070470000054A002952
:1007A00003D01168014311607047116881431160E3
:1007B0007047000030380240054A002903D0116814
:1007C0000143116070471168814311607047000058
:1007D000403802401048016841F0010101600E4AB2
:1007E00000210832116002680C4B1A400260031DA0
:1007F0000B4A1A60084B0B4A84331A60084A103AB5
:100800001B1D1A60026822F48022026002480C302C
:100810000160181D0160704700380240FFFFF6EAD2
:10082000103000240030002070B5244B196801F00E
:100830000C01234C00291ED0661004291DD0082964
:100840001DD00460196801F0F00109091D4A545CCB
:100850000168E14041601C6804F4E054A40A145D9E
:1008600021FA04F484601B6803F460435B0BD25CE0
:10087000D140C16070BD0460E4E70660E2E70F4A62
:10088000121F1168C1F38055116801F03F0135B1A5
:10089000B6FBF1F11468C4F38814614305E0B4FBBE
:1008A000F1F11468C4F3881461431268C2F3014281
:1008B000521C5200B1FBF2F10160C3E7083802405C
:1008C0000024F400180000200246002051090129EC
:1008D0000BD002290DD00949096802F01F0201233B
:1008E00093400B4200D001207047044974390968D5
:1008F000F3E70249091F0968EFE700007438024076
:100900000248006800F00C00704700000838024000
:10091000034A116821F0F0010143116070470000A3
:1009200008380240024900220A700870704700002F
:1009300002380240034A116821F4E051014311607A
:100940007047000008380240034A116821F46041F2
:1009500041EAC0001060704708380240014908664B
:10096000704700000000474210B5029C41EA821126
:100970004FF0FF3202EB530241EA0241014341EAE8
:1009800004600149086010BD04380240034A116840
:1009900021F0030101431160704700000838024054
:1009A00018B5002000904FF4A0443120FFF78CFFD1
:1009B0000099491C00910099A14201D00028F4D06F
:1009C0003120FFF781FF08B1012018BD002018BDBC
:1009D000FF2000F001B800002DE9F0410746184C57
:1009E0004FF480552560174E09E02068421E2260B2
:1009F00005D2002000F05CF8C0B2BDE8F081022111
:100A0000304600F02DF80028EFD03946304600F08F
:100A100030F8256008E021684A1E226004D20120D7
:100A200000F046F8C0B2E8E70121304600F018F8BF
:100A30000028F0D0304600F01AF8C0B2DDE7000020
:100A400014000020003C0040002904D0018841F03F
:100A5000400101807047018821F04001018070470A
:100A60000246002012890A4200D001207047808986
:100A700070478181704730B5028802F441530A887B
:100A80004C88CD8822438C882C4322430C892243F6
:100A90004C8922438C892243CC8922431A43028009
:100AA000828B22F400628283098A018230BD0000B9
:100AB00010B5014602A000F05BFA002010BD000056
:100AC0003C3C2D5350492D4552524F522D3E3E2015
:100AD000535049206F76657274696D652065727236
:100AE0006F72436F6465203D2025640A000000009A
:100AF000704700001CB50021019100912E4A10683A
:100B000040F4803010604FF4A043106800F40030CF
:100B100000900198401C0190009810B901989842EB
:100B2000F3D11068800302D50120009000E000910D
:100B3000009801283FD120484030016841F08051A1
:100B400001601E49086840F4404008601A480830B7
:100B500003680360036843F400430360036843F4DD
:100B6000A0530360041F164B2360136843F0807387
:100B7000136013689B01FCD50A6842F480320A6056
:100B80004A68D203FCD50A6842F400320A604A6817
:100B90009203FCD50B4A40F205711160016821F007
:100BA00003010160016841F0020101600168C1F3C5
:100BB00081010229FAD11CBD0038024000700040BA
:100BC000085A4007003C02402DE9F04188B001215D
:100BD0000320FFF7E3FD0121C803FFF7EDFD2D4FD3
:100BE000062203213846FFF703FC0622042138467B
:100BF000FFF7FEFB062205213846FFF7F9FB082028
:100C0000019002258DF809508DF8085000248DF8C8
:100C10000A408DF80B4001A93846FFF7ABFB1026C0
:100C2000019601A93846FFF7A5FB2020019001A9F4
:100C30003846FFF79FFB019601278DF80870DFF813
:100C4000588001A94046FFF795FBA8F81860ADF859
:100C50000C404FF48270ADF80E00ADF81040ADF8C6
:100C60001250ADF814702802ADF816002820ADF827
:100C70001800ADF81A400720ADF81C00074C03A976
:100C80002046FFF7F8FE01212046FFF7DDFE08B001
:100C9000BDE8F0810004024000000240003C00403A
:100CA0007047000010B51248016841F470010160FE
:100CB0001048016841F0010101600E4A002108322C
:100CC000116002680C4B1A400260031D0B4A1A6047
:100CD000026822F48022026006480C300160FFF7AF
:100CE00009FF03494FF000608039086010BD000023
:100CF00088ED00E000380240FFFFF6FE10300024CF
:100D000010B5084C0121204600F020F8002807D03B
:100D100000F0ACF82046BDE81040012100F007B813
:100D200010BD000000100040C94301827047C94354
:100D300001827047002904D0018841F0010101803F
:100D40007047018821F001010180704702460020B0
:100D5000138A0B4092890A40002B02D0002A00D04F
:100D600001207047002A03D082890A43828170479C
:100D700082898A43828170473EB501211020FFF7A6
:100D80001BFD40F2473001900020ADF80000094CF7
:100D90006946204600F010F801212046FFF7C4FF05
:100DA000012211462046FFF7DDFF01212046FFF713
:100DB000C1FF3EBD0010004030B50288164C174DF3
:100DC000A0420DD0A8420BD0B0F1804F08D0144BF8
:100DD000984205D0134B984202D0134B984203D14E
:100DE00022F070034A881A43104B984206D0104BE9
:100DF000984203D022F440730A891A4302804A6859
:100E0000C2620A880285A04201D0A84201D1897A33
:100E100001860121818230BD0000014000040140B3
:100E20000004004000080040000C0040001000409A
:100E30000014004010B500F004F8BDE81040FFF7C2
:100E40009BBF08B54FF4E060FFF79CFC36208DF89F
:100E5000000000208DF8010003208DF80200012021
:100E60008DF803006846FFF759FC08BD0348016888
:100E7000002902D00168491E01607047100000205F
:100E8000002904D0818941F4005181817047818912
:100E900021F40051818170470246002012880A42E5
:100EA00000D00120704700007FB504460D46208A1F
:100EB00020F44051E88808432082A08941F20C6167
:100EC0008843A9882A8911436A8902431143A18171
:100ED000A08A20F44071A8890843A0826846FFF7E1
:100EE000A3FC1E48844202D01D48844201D10398CD
:100EF00000E00298A189090408D500EBC00101EBCC
:100F0000001029684900B0FBF1F007E000EBC001D8
:100F100001EB001029688900B0FBF1F06422B0FBFE
:100F2000F2F109010B096FF018056B4300EB830028
:100F3000A3891D044FF0320307D503EBC000B0FBBB
:100F4000F2F000F00700084306E003EB0010B0FBEE
:100F5000F2F000F00F00084320817FBD0010014037
:100F600000140140C1F3080181807047FEE70000D2
:100F70000FB4054B10B503A9044A029800F018F805
:100F800010BC5DF814FB00001514000828000020B8
:100F900002E008C8121F08C1002AFAD17047704742
:100FA000002001E001C1121F002AFBD170470000A0
:100FB0002DE9FF4F8DB00F460546002606E0252897
:100FC0000BD0DDE90F1290476D1C761C28780028A5
:100FD000F5D111B03046BDE8F08F0024A246A146FD
:100FE0000122EC4900E0044315F8013F203B02FADE
:100FF00003F00842F7D128782A2810D06FF02F028A
:101000002878A0F13001092914D80AEB8A0102EBF3
:10101000410144F0020400EB010A6D1CF0E701CF2E
:101020005FEA000A03D544F40054CAF1000A44F010
:1010300002046D1C28782E2817D115F8010F44F0F2
:1010400004042A280ED06FF02F022878A0F1300176
:1010500009290AD809EB890102EB410100EB0109DA
:101060006D1CF2E757F8049B6D1C28786C280FD094
:1010700006DC4C2817D068280DD06A2814D104E06B
:10108000742810D07A280FD10DE044F400140AE03F
:1010900044F4801401E044F440146978814202D1A0
:1010A00004F580146D1C6D1C2A786E2A1FD00CDC90
:1010B000632A31D004DC002A8BD0582A11D1A3E056
:1010C000642A68D0692A0CD165E0732A2ED004DC2A
:1010D0006F2A73D0702A04D19BE0752A6FD0782ACA
:1010E0006ED01046DDE90F129047761C50E1C4F334
:1010F0000250022806D0032809D0042801CF09D0C5
:10110000066045E101CFF117C0E9006140E101CF80
:1011100006803DE106703BE117F8040B8DF80000F6
:1011200000208DF80100EB46012003E057F804BBD6
:101130004FF0FF3061074FF0000102D40DE008F1DD
:101140000101884649450FDA8045F8DB1BF8081095
:101150000029F4D108E008F1010188468142FADB58
:101160001BF808100029F6D1DDE90F23AAEB0800CF
:101170008146214600F036F9304400EB080604E0D1
:10118000DDE90F121BF8010B9047B8F10108F7D207
:1011900021464846F7E00A21C4F302534FF0000B02
:1011A0000891022B04D001CFC117032B09D00AE00C
:1011B000FF1D27F00707F7E8020108E032E01FE013
:1011C00020E000B2C117042B01D140B2C117031EA9
:1011D00071F1000307DA4FF0000CD0EB0C006CEB60
:1011E00001012D2302E0230504D52B238DF82430A3
:1011F000012303E0E30701D02023F7E7984658E0F6
:101200000A2110E010210EE010204FF0000B089092
:101210000CE010214FF0000B44F004044FF00809DB
:10122000089103E008214FF0000B0891C4F302532A
:10123000022B04D001CF0021032B06D006E0FF1DB6
:1012400027F00707F7E8020103E080B2042B00D182
:10125000C0B24FF0000823072BD5702A07D0DDF865
:1012600020C08CF0100C5CEA0B0C05D00EE0402383
:101270008DF82430012308E050EA010306D0302322
:101280008DF824308DF8252002239846DDF820C003
:101290008CF0080C5CEA0B0C0BD150EA010301D175
:1012A000630706D530238DF824304FF00108A9F1EB
:1012B0000109582A04D038A20B9208AA0A920BE01E
:1012C0003AA2F9E75B46089AFEF78CFF0B9B9B5C02
:1012D0000A9A521E0A92137050EA0102F2D10A9839
:1012E000ADEB000000F1200B600702D524F4803440
:1012F00001E04FF00109D94502DDA9EB0B0000E048
:10130000002000EB0B0141440890AAEB010AE00326
:1013100006D4DDE90F232146504600F063F8064469
:101320004FF0000908E009A911F80900DDE90F12E2
:10133000904709F10109761CC145F4DBE0030CD5A7
:10134000DDE90F232146504600F04CF8064404E046
:10135000DDE90F1230209047761C0899481E08904E
:101360000029F5DC08E00A980A990078491C0A91DE
:10137000DDE90F129047761CBBF10001ABF1010BC8
:10138000F1DC21465046DDE90F2300F019F8064450
:101390006D1C1BE6092801003031323334353637F5
:1013A00038396162636465660000000030313233B1
:1013B0003435363738394142434445460000000051
:1013C0002DE9F041044600251E461746880404D442
:1013D00005E039462020B0476D1C641EF9D528462B
:1013E000BDE8F0812DE9F041044600251E469046F7
:1013F000C80301D5302700E02027880404D505E084
:1014000041463846B0476D1C641EF9D52846BDE8F4
:10141000F081000070B50446064DE1B22846FFF7A2
:10142000A1FD80212846FFF737FD0028F9D020468E
:1014300070BD00000048004010B5002821D0114BBD
:101440000022001F196803E0814203D80A46496858
:101450000029F9D152B11368841A9C4204D1006862
:1014600018441060104602E0506000E0186039B186
:1014700002680B1A934203D10B681A440260496850
:10148000416010BD2C000020072302224FF4A871F8
:101490000820FEF7BDFFFEF70BFF0DA0FFF768FD6C
:1014A000FFF712F8FFF7C6FCFFF78EFB094CFFF7BA
:1014B000DBF809490120FFF7E3F8401C02D107A03F
:1014C000FFF756FDFFF732F82046FEF73DFFEEE747
:1014D0006B730000A08601000600002041205045EB
:1014E00043206572726F7220776173206465746542
:1014F0006374656420696E20746865207265636535
:10150000697665642064617461000000F0B50B3099
:10151000154D20F007010024144A0FE003688B42A8
:101520000BD38B4205D95E1A43184768C3E900679D
:1015300000E04368136002C004E0021D1068002848
:10154000ECD12046002802D1286808B10020F0BD67
:10155000064A07481060074A121A22F00702C0E93B
:10156000002401202860D7E7300000202C00002054
:101570003C00002038020020014601A0FFF7F8BC23
:1015800025303258000000000000000099C500001E
:10159000ABCE0000320B0000CFD80000561D00007B
:1015A00064160000FDD3000007F400009E31000027
:1015B000AC3A000035FF0000C82C000051E90000E3
:1015C00063E20000FA27000097AD00000E680000FB
:1015D0003C630000A5A6000058750000C1B00000E3
:1015E000F3BB00006A7E000090590000099C0000D7
:1015F0003B970000A25200005F810000C64400003B
:10160000F44F00006D8A00002E5B0000B79E0000C2
:10161000859500001C500000E18300007846000022
:101620004A4D0000D388000029AF0000B06A0000D6
:10163000826100001BA40000E67700007FB200007A
:101640004DB90000D47C0000B9F600002033000042
:10165000123800008BFD0000762E0000EFEB00003A
:10166000DDE0000044250000BE02000027C70000A6
:1016700015CC00008C09000071DA0000E81F0000A2
:10168000DA14000043D10000C5F300005C3600000E
:101690006E3D0000F7F800000A2B000093EE0000FA
:1016A000A1E5000038200000C20700005BC2000076
:1016B00069C90000F00C00000DDF0000941A000062
:1016C000A61100003FD40000525E0000CB9B00003A
:1016D000F9900000605500009D8600000443000062
:1016E00036480000AF8D000055AA0000CC6F000006
:1016F000FE64000067A100009A72000003B70000BA
:1017000031BC0000A8790000EBA80000726D000059
:1017100040660000D9A3000024700000BDB50000A1
:101720008FBE0000167B0000EC5C00007599000085
:1017300047920000DE57000023840000BA410000F9
:10174000884A0000118F00007C050000E5C0000001
:10175000D7CB00004E0E0000B3DD00002A180000B9
:101760001813000081D600007BF10000E234000075
:10177000D03F000049FA0000B42900002DEC000021
:101780001FE700008622000013A200008A67000005
:10179000B86C000021A90000DC7A000045BF000001
:1017A00077B40000EE710000145600008D93000025
:1017B000BF980000265D0000DB8E0000424B000059
:1017C00070400000E9850000840F00001DCA000081
:1017D0002FC10000B60400004BD70000D212000059
:1017E000E019000079DC000083FB00001A3E0000D5
:1017F00028350000B1F000004C230000D5E60000C1
:10180000E7ED00007E2800003DF90000A43C000048
:10181000963700000FF20000F22100006BE4000098
:1018200059EF0000C02A00003A0D0000A3C80000D4
:1018300091C3000008060000F5D500006C10000000
:101840005E1B0000C7DE0000AA54000033910000B8
:10185000019A0000985F0000658C0000FC490000C0
:10186000CE42000057870000ADA0000034650000A4
:10187000066E00009FAB000062780000FBBD000018
:10188000C9B6000050730000D65100004F9400000C
:101890007D9F0000E45A000019890000804C000080
:1018A000B24700002B820000D1A500004860000074
:1018B0007A6B0000E3AE00001E7D000087B80000D8
:1018C000B5B300002C76000041FC0000D8390000C0
:1018D000EA32000073F700008E24000017E10000D8
:1018E00025EA0000BC2F000046080000DFCD000004
:1018F000EDC600007403000089D000001015000040
:10190000221E0000BBDB0000F80A000061CF0000CF
:1019100053C40000CA01000037D20000AE17000017
:101920009C1C000005D90000FFFE0000663B000083
:1019300054300000CDF5000030260000A9E300007F
:101940009BE80000022D00006FA70000F662000077
:10195000C46900005DAC0000A07F000039BA00003F
:101960000BB100009274000068530000F196000073
:10197000C39D00005A580000A78B00003E4E000097
:101980000C45000095800000A81900080000002008
:1019900034000000900F0008DC190008340000201B
:1019A00004060000A00F0008000000000000000076
:1019B00000000000000000000000000000A0000087
:1019C00000000000010203040102030406070809E5
:0C19D0000000000000000000000000000B
:04000005080001AD41
:00000001FF
