:020000040800F2
:1000000078060020C10100081B0E000859090008ED
:10001000190E00083F0700086D16000800000000D8
:10002000000000000000000000000000F1110008C6
:100030004107000800000000990E0008A113000805
:10004000DB010008DB010008DB010008DB01000820
:10005000DB010008DB010008DB010008DB01000810
:10006000DB010008DB010008DB010008DB01000800
:10007000DB010008DB010008DB010008DB010008F0
:10008000DB010008DB010008DB010008DB010008E0
:10009000DB010008DB010008DB010008DB010008D0
:1000A000DB010008DB010008DB010008DB010008C0
:1000B000DB010008DB010008DB010008DB010008B0
:1000C000DB010008DB010008DB010008DB010008A0
:1000D000DB010008DB010008DB010008DB01000890
:1000E000DB010008DB010008DB010008DB01000880
:1000F000DB010008DB010008DB010008DB01000870
:10010000DB010008DB010008DB010008DB0100085F
:10011000DB010008DB01000801140008DB01000816
:10012000DB010008DB010008DB010008DB0100083F
:10013000DB010008DB010008DB010008DB0100082F
:10014000DB010008DB010008DB010008DB0100081F
:10015000DB010008DB010008DB010008DB0100080F
:10016000DB010008DB010008DB010008DB010008FF
:10017000DB010008DB010008DB010008DB010008EF
:10018000DB010008DB010008DB010008DB010008DF
:10019000DB010008DB010008DB010008DB010008CF
:1001A000DB010008DB010008DB010008DFF80CD0F0
:1001B00000F082FA00480047052000087806002079
:1001C0000648804706480047FEE7FEE7FEE7FEE7F1
:1001D000FEE7FEE7FEE7FEE7FEE7FEE7A513000801
:1001E000AD0100082DE9FE4F81EA030404F000444C
:1001F00021F0004100944FF0000B23F0004350EA3F
:1002000001045ED052EA03045BD0C3F30A54C1F385
:100210000A552C44A4F2F3340194A0FB0254C1F318
:10022000130141F48011C3F3130343F4801301FB62
:10023000024400FB034E840A970A44EA815447EAC9
:100240008357A4FB076802958D0A05FB07854FEAD3
:10025000932C04FB0C542705029D4FEA065847EAED
:100260001637B5EB08056EEB070C870E920E47EAC2
:10027000811742EA8312A7FB0201B6EB0B0164EB84
:1002800000042B0D43EA0C335E1844EB1C50DA4695
:100290005146E7FB0201C5F313044FEA0B3343EA6F
:1002A00014534FEA0432019C43EA0603A4F10C0400
:1002B0000294009CCDE900B400F069F803B0BDE8F9
:1002C000F08F00200146F9E70EB540F2334102916C
:1002D0000021CDE900110A460B4600F058F803B0A2
:1002E00000BD30B50B46014600202022012409E064
:1002F00021FA02F59D4205D303FA02F5491B04FADF
:1003000002F52844151EA2F10102F1DC30BD2DE9F1
:10031000F05F0546002092469B4688460646814689
:1003200040241BE0284641464746224600F0E5F9B6
:1003300053465A46C01A914110D3114618462246D8
:1003400000F0CCF92D1A67EB01084F462246012038
:10035000002100F0C3F917EB00094E41201EA4F163
:100360000104DFDC484631462A464346BDE8F09F9B
:1003700010B5141E73F1000408DA401C41F10001AD
:1003800092185B411A4301D120F0010010BD2DE904
:10039000F04D92469B4611B1B1FA81F202E0B0FAFB
:1003A00080F22032904600F099F904460F4640EA68
:1003B0000A0041EA0B0153465A46084313D011463E
:1003C00053EA010019D0C8F14002504600F095F9F7
:1003D00005460E4650465946424600F07FF908430E
:1003E00005D0012004E020463946BDE8F08D00200C
:1003F000054346EAE0762C4337430A986305E40A4E
:10040000A0EB08000022FD0A44EA47540A3002D556
:1004100000200146E9E7010510196941DDE90845B9
:1004200000196941BDE8F04DA2E72DE9FE4F804675
:1004300081EA0300C00F0C46009021F0004123F038
:100440000045B8EB0200A94105D24046214690463E
:100450001C460B46024623F00040104347D0270DB0
:10046000C7F30A00C3F30A510290401A01904028D2
:100470006BDAC3F3130040F4801B0098924620B15E
:100480000023D2EB030A63EB0B0B01985946C0F132
:100490004002504600F022F906460D4650465946A5
:1004A000019A00F03AF910EB08006141002487EA54
:1004B000115284EAE7731A4340D0009A62B3019A5A
:1004C000012A4FEA075215DC001B61EB02014FF0D5
:1004D000004202EA0752CDE90042001C41F58011BA
:1004E00032462B46FFF753FF03B0BDE8F08F40467E
:1004F0002146F9E7001B61EB0201001C41F5801366
:1005000000185B412018A2F5001747EB030140EAF1
:10051000D570B6196D4111E06D084FEA360645EA0F
:10052000C0754FEA0752001B61EB0201001C41F548
:10053000801149084FEA30000019514132462B46DC
:1005400003B0BDE8F04FFFF713BF00980122400051
:100550000023D0EB020263EBE073009821464FEAE0
:10056000E074B8EB000061EB0401E9E783F00043BD
:100570005BE781F0004158E72DE9F04D81EA030483
:1005800004F0004B21F0004514464FF0000A23F020
:10059000004150EA050220D054EA01021DD0C5F303
:1005A0000A570246C5F31303C1F31300C1F30A56F9
:1005B00040F4801543F48013A7EB0608101BD646C1
:1005C00008F2FD3873EB050002D308F1010801E0E1
:1005D00092185B41B8F1000F03DA00200146BDE834
:1005E000F08D00204FF48011064684460EE0171B64
:1005F00073EB050705D3121B63EB050306434CEAB7
:10060000010C49084FEA300092185B4150EA01079B
:10061000EDD152EA030012D082EA040083EA050118
:10062000084305D0101BAB4106D20122002306E08F
:1006300000224FF0004302E06FF0010253101AEB6A
:1006400006004CEB085110EB0A0041EB0B01BDE832
:10065000F04DFFF78DBEC1F30A52C1F3130140F212
:10066000FF3341F480119A4202DA002001467047BC
:1006700040F233439A42A2F2334202DC524200F08B
:100680003CB800F02BB8000030B5041E71F1000436
:1006900004DB4FF00044404264EB0101141E73F18F
:1006A000000405DB1C464FF00043524263EB040399
:1006B000994208BF904230BD064C074D06E0E06805
:1006C00040F0010394E8070098471034AC42F6D399
:1006D000FFF770FD98240008B8240008202A04DBE6
:1006E000203A00FA02F1002070479140C2F1200345
:1006F00020FA03F3194390407047202A04DB203A84
:1007000021FA02F00021704721FA02F3D040C2F131
:1007100020029140084319467047202A06DBCB1778
:10072000203A41FA02F043EAE07306E041FA02F3AC
:10073000D040C2F120029140084319467047FEE7BD
:100740007047000070B586B00121082000F0A6FBBC
:10075000204E07220921304600F094F80722082194
:10076000304600F08FF800248DF8164001208DF8F7
:10077000170002258DF815508DF8145001020491D0
:1007800004A9304600F040F88DF814502802049077
:1007900004A9304600F038F80121880400F08CFBF1
:1007A0004FF47A300090ADF80440ADF80640ADF853
:1007B0000840ADF80C400C20ADF80A00064C694624
:1007C000204600F0F1FE0121204600F0D9FE06B0DF
:1007D00070BD0000000C02400048004031B5084CDC
:1007E00000982060074D0121284600F023FE216873
:1007F0000029FCD12846BDE8384000F01BBE0000AF
:1008000000000020001000402DE9F04100220127E7
:100810004FF0030C07FA02F50B682B40AB422CD1CA
:10082000066853000CFA03F4A64306600E79D0F86C
:1008300000809E4046EA080606600E79012E01D02F
:10084000022E12D18668A64386604E79D0F80880C1
:100850009E4046EA080686604668AE4346604568A4
:100860008E799640B6B235434560C568A543C560EC
:10087000CC799C40C3681C43C460521C102AC9D365
:10088000BDE8F08110B54B07DB0E9A40C90800EBBC
:100890008100016A0F249C40A1430162016A114357
:1008A000016210BD2DE9FC4106460F4690461D46EB
:1008B0000020019000F00EFB012000F0B3FB00F0DF
:1008C000EFFB01900198012800D0FEE71F48016866
:1008D00041F0805101601E4C206840F4404020608F
:1008E000002000F095FBA01400F0AEFB4FF4A050E8
:1008F00000F0A0FB43463A4631464FF48000009595
:1009000000F0B2FB012000F0A9FB392000F05CFBF5
:100910000028FAD0206840F4803020606068C0036E
:10092000FCD5206840F40030206060688003FCD56E
:10093000084940F205700860022000F0A7FB00F0B3
:100940005FFB0828FBD1BDE8FC8100004038024075
:1009500000700040003C0240FEE700001CB5012191
:10096000022000F09BFA8020009001218DF80410F5
:1009700000208DF806008DF807108DF805006946F7
:100980000148FFF741FF1CBD0004024038B50D4887
:1009900001788DF8001040788DF801000949022097
:1009A00000F06CF8010A8DF802108DF8030000F0D9
:1009B000CFF9054D10246C836946042000F0A0F99E
:1009C0002C8338BD080000200000024010B501F063
:1009D00003FB00231A461946022000F007FABDE87F
:1009E000104000F071BC00000EA000F041FE00F0CD
:1009F000AFF91549022000F0B7F900F0A9F9FFF7A7
:100A0000C5FF00F0A5F9104A0221303A002000F09D
:100A1000ABF840B2401C02D10CA000F029FE00F05F
:100A200047F8EAE75374617274204C544336383007
:100A30003431206D6561737572656D656E74206CFF
:100A40006F6F703A0A0000005800002041205045A6
:100A500043206572726F72207761732064657465DC
:100A60006374656420696E207468652072656365CF
:100A700069766564206461746100000030B51023FC
:100A800000220A4D0AE08C5C84EAD314E4B235F803
:100A9000244084EA03239BB2521CD2B28242F2D396
:100AA0004FF6FF7000EA430030BD000098200008B8
:100AB0002DE9F0412DED048B00251F4F9FED1F9B6D
:100AC00020A000F0D5FD691C20A000F0D1FD00247D
:100AD00005EB450007EBC006B0EE498AF0EE698AE7
:100AE0001CA000F0C5FD611C18A000F0C1FD1AA0FB
:100AF00000F0BEFD36F81400FFF7E6FB53EC182BB0
:100B0000FFF770FB41EC100B14A053EC102B00F01E
:100B1000AFFD13A000F0ACFD641C0C2CE0DB11A0B9
:100B200000F0A6FD6D1C022DCADBBDEC048B0DA0F0
:100B3000BDE8F04100F09CBD280000202D431CEBD7
:100B4000E2361A3F2049432000000000253032647D
:100B500000000000204300003A000000256600006D
:100B60002C0000000A0000002DE9F05F8246884654
:100B70009146002700254FEAC80001F057FA0446C5
:100B8000BAF1000F06D022464146504600F07AF8EE
:100B900000266FE04FF0010A0025224641465046EC
:100BA00000F070F800262DE0002006EB460109EB6E
:100BB000C102AAF1010101EB410304EB050C615DE7
:100BC0009CF801C001EB0C2103EB000C22F81C1077
:100BD000AD1CEDB2401CC0B20328EED36019615DBC
:100BE000407800EB01201FFA80FB04EBC6010620D1
:100BF000FFF744FF834501D04FF0FF37AD1CEDB246
:100C0000761CF6B24645CFD30AF1010A0AF0FF0A74
:100C1000BAF1050FC0D32FE0002006EB460109EB27
:100C2000C102AAF1010101EB410304EB050C615D76
:100C30009CF801C001EB0C2103EB000C22F81C1006
:100C4000AD1CEDB2401CC0B20328EED36019615D4B
:100C5000407800EB01201FFA80FB04EBC601062060
:100C6000FFF70CFF834501D04FF0FF37AD1CEDB20D
:100C7000761CF6B24645CFD3204601F085F9F8B28E
:100C8000BDE8F09FF8B50D4614460023012806D0B4
:100C900002280AD003280ED0042812D016E004201F
:100CA0008DF801008DF8003010E006208DF801006D
:100CB0008DF800300AE008208DF801008DF8003032
:100CC00004E00A208DF801008DF80030694602200A
:100CD000FFF7D4FE010A8DF802108DF8030000F032
:100CE00037F8064E10277783E806030E22460421C4
:100CF000684600F012F83783F8BD0000000002409B
:100D000070B506460D46002404E0285D00F0E4F9C5
:100D1000641CE4B2B442F8D370BD2DE9F04105463D
:100D2000884616461F46002404E0285D00F0D4F9EA
:100D3000641CE4B24445F8D3002404E000F0C8F990
:100D40003055641CE4B2BC42F8D3BDE8F081000029
:100D500070B5044C102565834FF49670FFF73EFD87
:100D6000258370BD000002402DE9F04106460F4684
:100D7000042000EBC60000F0FF08404601F056F9E1
:100D8000054600212970012169703D21A9706E215D
:100D9000E970042417E00022761E06EB460007EBFC
:100DA0004001885C2855641CE4B2521CD2B2062A69
:100DB000F7D30620FFF762FE010A2955291948706A
:100DC000A41CE4B2F6B2002EE5D1FFF7C1FF064E37
:100DD0001024748329464046FFF792FF3483284647
:100DE000BDE8F04101F0D0B80000024070B5C0F39A
:100DF0004004084DA61C2E70C00100EB01111144E7
:100E000060316970241DA91C0C7018446030487052
:100E100070BD000008000020FEE7704730B50F23CA
:100E2000C27801250178002A1FD0154A126802F401
:100E3000E062C2F5E062C2F30722C2F10404D340CB
:100E40004278A24084781C401443220101F1E02141
:100E500081F80024007800F01F018D4040098000D7
:100E600000F1E020C0F8005130BD01F01F008540C6
:100E70004809800000F1E020C0F8805130BD00003A
:100E80000CED00E002490843024908607047000089
:100E90000000FA050CED00E070470000054A00294B
:100EA00003D01168014311607047116881431160DC
:100EB0007047000030380240054A002903D011680D
:100EC0000143116070471168814311607047000051
:100ED000403802401048016841F0010101600E4AAB
:100EE00000210832116002680C4B1A400260031D99
:100EF0000B4A1A60084B0B4A84331A60084A103AAE
:100F00001B1D1A60026822F48022026002480C3025
:100F10000160181D0160704700380240FFFFF6EACB
:100F2000103000240030002070B5244B196801F007
:100F30000C01234C00291ED0661004291DD008295D
:100F40001DD00460196801F0F00109091D4A545CC4
:100F50000168E14041601C6804F4E054A40A145D97
:100F600021FA04F484601B6803F460435B0BD25CD9
:100F7000D140C16070BD0460E4E70660E2E70F4A5B
:100F8000121F1168C1F38055116801F03F0135B19E
:100F9000B6FBF1F11468C4F38814614305E0B4FBB7
:100FA000F1F11468C4F3881461431268C2F301427A
:100FB000521C5200B1FBF2F10160C3E70838024055
:100FC0000024F4000C0000200246002051090129F1
:100FD0000BD002290DD00949096802F01F02012334
:100FE00093400B4200D001207047044974390968CE
:100FF000F3E70249091F0968EFE70000743802406F
:101000000248006800F00C007047000008380240F9
:10101000034A116821F0F00101431160704700009C
:1010200008380240024900220A7008707047000028
:1010300002380240034A116821F4E0510143116073
:101040007047000008380240034A116821F46041EB
:1010500041EAC00010607047083802400149086644
:10106000704700000000474210B5029C41EA82111F
:101070004FF0FF3202EB530241EA0241014341EAE1
:1010800004600149086010BD04380240034A116839
:1010900021F003010143116070470000083802404D
:1010A00018B5002000904FF4A0443120FFF78CFFCA
:1010B0000099491C00910099A14201D00028F4D068
:1010C0003120FFF781FF08B1012018BD002018BDB5
:1010D000FF2000F001B800002DE9F0410746184C50
:1010E0004FF480552560174E09E02068421E2260AB
:1010F00005D2002000F05CF8C0B2BDE8F08102210A
:10110000304600F02DF80028EFD03946304600F088
:1011100030F8256008E021684A1E226004D20120D0
:1011200000F046F8C0B2E8E70121304600F018F8B8
:101130000028F0D0304600F01AF8C0B2DDE7000019
:1011400004000020003C0040002904D0018841F048
:10115000400101807047018821F040010180704703
:101160000246002012890A4200D00120704780897F
:1011700070478181704730B5028802F441530A8874
:101180004C88CD8822438C882C4322430C892243EF
:101190004C8922438C892243CC8922431A43028002
:1011A000828B22F400628283098A018230BD0000B2
:1011B00010B5014602A000F05BFA002010BD00004F
:1011C0003C3C2D5350492D4552524F522D3E3E200E
:1011D000535049206F76657274696D65206572722F
:1011E0006F72436F6465203D2025640A0000000093
:1011F000704700001CB50021019100912E4A106833
:1012000040F4803010604FF4A043106800F40030C8
:1012100000900198401C0190009810B901989842E4
:10122000F3D11068800302D50120009000E0009106
:10123000009801283FD120484030016841F080519A
:1012400001601E49086840F4404008601A480830B0
:1012500003680360036843F400430360036843F4D6
:10126000A0530360041F164B2360136843F0807380
:10127000136013689B01FCD50A6842F480320A604F
:101280004A68D203FCD50A6842F400320A604A6810
:101290009203FCD50B4A40F205711160016821F000
:1012A00003010160016841F0020101600168C1F3BE
:1012B00081010229FAD11CBD0038024000700040B3
:1012C000085A4007003C02402DE9F04188B0012156
:1012D0000320FFF7E3FD0121C803FFF7EDFD2D4FCC
:1012E000062203213846FFF7CDFA062204213846AC
:1012F000FFF7C8FA062205213846FFF7C3FA08208F
:10130000019002258DF809508DF8085000248DF8C1
:101310000A408DF80B4001A93846FFF775FA1026F0
:10132000019601A93846FFF76FFA2020019001A924
:101330003846FFF769FA019601278DF80870DFF843
:10134000588001A94046FFF75FFAA8F81860ADF889
:101350000C404FF48270ADF80E00ADF81040ADF8BF
:101360001250ADF814702802ADF816002820ADF820
:101370001800ADF81A400720ADF81C00074C03A96F
:101380002046FFF7F8FE01212046FFF7DDFE08B0FA
:10139000BDE8F0810004024000000240003C004033
:1013A0007047000010B51248016841F470010160F7
:1013B0001048016841F0010101600E4A0021083225
:1013C000116002680C4B1A400260031D0B4A1A6040
:1013D000026822F48022026006480C300160FFF7A8
:1013E00009FF03494FF000608039086010BD00001C
:1013F00088ED00E000380240FFFFF6FE10300024C8
:1014000010B5084C0121204600F020F8002807D034
:1014100000F0ACF82046BDE81040012100F007B80C
:1014200010BD000000100040C94301827047C9434D
:1014300001827047002904D0018841F00101018038
:101440007047018821F001010180704702460020A9
:10145000138A0B4092890A40002B02D0002A00D048
:1014600001207047002A03D082890A438281704795
:1014700082898A43828170473EB501211020FFF79F
:101480001BFD40F2473001900020ADF80000094CF0
:101490006946204600F010F801212046FFF7C4FFFE
:1014A000012211462046FFF7DDFF01212046FFF70C
:1014B000C1FF3EBD0010004030B50288164C174DEC
:1014C000A0420DD0A8420BD0B0F1804F08D0144BF1
:1014D000984205D0134B984202D0134B984203D147
:1014E00022F070034A881A43104B984206D0104BE2
:1014F000984203D022F440730A891A4302804A6852
:10150000C2620A880285A04201D0A84201D1897A2C
:1015100001860121818230BD0000014000040140AC
:101520000004004000080040000C00400010004093
:101530000014004010B500F004F8BDE81040FFF7BB
:101540009BBF08B54FF4E060FFF79CFC36208DF898
:10155000000000208DF8010003208DF8020001201A
:101560008DF803006846FFF759FC08BD0348016881
:10157000002902D00168491E016070470000002068
:10158000002904D0818941F400518181704781890B
:1015900021F40051818170470246002012880A42DE
:1015A00000D00120704700007FB504460D46208A18
:1015B00020F44051E88808432082A08941F20C6160
:1015C0008843A9882A8911436A8902431143A1816A
:1015D000A08A20F44071A8890843A0826846FFF7DA
:1015E000A3FC1E48844202D01D48844201D10398C6
:1015F00000E00298A189090408D500EBC00101EBC5
:10160000001029684900B0FBF1F007E000EBC001D1
:1016100001EB001029688900B0FBF1F06422B0FBF7
:10162000F2F109010B096FF018056B4300EB830021
:10163000A3891D044FF0320307D503EBC000B0FBB4
:10164000F2F000F00700084306E003EB0010B0FBE7
:10165000F2F000F00F00084320817FBD0010014030
:1016600000140140C1F3080181807047FEE70000CB
:101670000FB4054B10B503A9044A029800F0DAF83C
:1016800010BC5DF814FB0000651F00081C00002062
:1016900002E008C8121F08C1002AFAD1704770473B
:1016A000002001E001C1121F002AFBD17047000099
:1016B0002DE9FF5F82B00021DDE90430020DDDF885
:1016C00040B0034318D044F61050A2F2FF32424318
:1016D0001514119801281FD0A5EB0B00401C5FEAE0
:1016E000000A4FF000064E4FDFF83891B0465046E2
:1016F00015D5CAF1000413E0119801244AA301286A
:1017000001D16FEA0B010298119AC0E90031C0E9DA
:10171000024206B0BDE8F09FCBF10000DFE70446CF
:101720000021404A491842EB0450CDE9001012E074
:10173000E00707D032463B4640464946FEF752FD99
:101740008046894632463B4610461946FEF74AFD1A
:1017500006460F466410002CEAD1DDE90401DDE9FC
:101760000023BAF1000F06DAFEF73CFD42464B4675
:10177000FEF738FD05E0FEF7FFFE42464B46FEF75A
:10178000FBFE04460E460022284BFEF77DFF03D8E1
:101790004FF0FF30014607E00022254B204631463E
:1017A000FEF743FEFEF757FF102409E0002C0ADB8A
:1017B0000A220023FEF7ABFD039B30321A55641E4C
:1017C00050EA0102F2D1641C039AC4F111031444DB
:1017D000119A012A03D0012208430DD10AE00843DF
:1017E00004D000204FF0110B119072E7A3EB0B0512
:1017F0006D1E0DE05B4504DD4FF0000205F10105B3
:1018000004E003DA4FF00002A5F10105002AECD054
:1018100002981199C0E90231C0E9004579E700005A
:10182000000014400000F03F300000000000F043D2
:101830000000E03F2DE9FF4F95B09B4689460646E4
:1018400000250FE2252877D100242746F84A0121F8
:10185000059400E0044316F8013F203B01FA03F031
:101860001042F7D130782A2811D06FF02F0330784A
:10187000A0F13002092A16D8059A44F0020402EBBE
:10188000820203EB42021044761C0590EFE759F800
:10189000042B0592002A03DA504244F400540590C8
:1018A00044F00204761C30782E2816D116F8010F69
:1018B00044F004042A280DD06FF02F023078A0F1F4
:1018C0003003092B09D807EB870302EB4303C71842
:1018D000761CF3E759F8047B761C30786C280FD01F
:1018E00006DC4C2817D068280DD06A2814D104E0F3
:1018F000742810D07A280FD10DE044F400140AE0C7
:1019000044F4801401E044F440147278824202D11D
:1019100004F58014761C761C307866280BD013DC16
:10192000582877D009DC002875D04528F6D04628FD
:10193000F4D047281AD19DE118E0632835D06428F7
:1019400079D0652812D195E1702873D008DC67281A
:10195000F1D069286FD06E280DD06F2806D1B5E080
:1019600073282CD0752875D0782874D05A461799CA
:1019700090476D1C75E1C4F30250022809D003287A
:101980000DD0D9F8001004280DD00D6009F104091C
:1019900067E1D9F80010EA17C1E90052F6E7D9F873
:1019A00000100D80F2E70D70F0E719F8041B8DF8B8
:1019B000001000208DF80100EA46012003E059F8EC
:1019C00004AB4FF0FF3061074FF0000102D40DE08F
:1019D00008F101018846B9420FDA8045F8DB1AF8B0
:1019E00008100029F4D108E008F10101884681427D
:1019F000FADB1AF808100029F6D105985B46A0EB2F
:101A0000080721463846179A00F094FA284400EB5C
:101A1000080507E04DE029E10DE01AF8010B5A46F0
:101A200017999047B8F10108F7D25B46214638462E
:101A3000179A13E142E00A220092C4F302524FF0D7
:101A4000000A022A08D059F804CB032A4FEAEC71A5
:101A50000AD00DE029E02AE009F1070121F0070290
:101A6000F2E802C1914609E00FFA8CFC4FEAEC71F2
:101A7000042A03D14FFA8CFC4FEAEC71002907DAF3
:101A80000A460021DCF1000C61EB02012D2202E08C
:101A9000220504D52B228DF80420012203E0E20761
:101AA00001D02022F7E7904659E00A2102E01022F7
:101AB0000DE010214FF0000A00910BE010224FF0D2
:101AC000000A44F004040827009203E008224FF0C3
:101AD000000A0092C4F30252022A05D059F804CB3E
:101AE0000021032A08D009E009F1070121F00702CB
:101AF000F2E802C1914605E01FFA8CFC042A01D1EC
:101B00000CF0FF0C4FF00008220728D5702806D0F3
:101B1000009B83F0100353EA0A0305D00EE0402235
:101B20008DF80420012208E05CEA010206D0302290
:101B30008DF804208DF8050002229046009B83F06A
:101B4000080353EA0A030AD15CEA010201D16207E1
:101B500005D530228DF804204FF001087F1E58284B
:101B600004D034A003900EA802900DE036A0F9E74F
:101B700053466046009AFEF7CAFB84460398825C8F
:101B80000298401E029002705CEA0100F0D10298B7
:101B900006A9081A00F1200A600702D524F480344F
:101BA00000E00127574502DDA7EB0A0000E0002016
:101BB00000EB0A01009005984144401A0590E003AB
:101BC00006D45B462146179A059800F0B3F9054400
:101BD000002706E001A85A46C05D179990476D1C82
:101BE0007F1C4745F6DBE0030CD55B462146179A80
:101BF000059800F09FF9054404E030205A461799F3
:101C000090476D1C0099481E00900029F5DC08E003
:101C1000029802995A460078491C029117999047F8
:101C20006D1CBAF10001AAF1010AF1DC65E10000C6
:101C300009280100303132333435363738396162A2
:101C40006364656600000000303132333435363766
:101C500038394142434445460000000000F058F93D
:101C60000544761C307800287FF4ECAD19B0284686
:101C7000BDE8F08F620700D4062709F1070222F0C1
:101C8000070CFCE80223E14603F000485FEA080C79
:101C900002D00FF2702C0DE05FEA045C02D50FF267
:101CA000682C07E05FEAC47C02D00FF2602C01E0F0
:101CB000AFF2700C4FF0FF3823F00043CDF850C066
:101CC00065280CD006DC452809D046281DD04728B9
:101CD0003DD13DE0662818D067287ED138E000214C
:101CE000112F01DB112000E0781CCDE9000106A9CD
:101CF0000EA8FFF7DDFCDDE90F010E9A039100212C
:101D0000009207F1010A04914DE04FF00040009766
:101D1000CDE9011006A90EA8FFF7CAFCDDE90F0204
:101D200003920E9B11990022DDF80CA000930492FF
:101D300011B9791C00EB010AB7EB0A0004D4C0F119
:101D4000FF3007F1010A0490AAEB0700019044E07C
:101D5000012F00DA01270021112F01DD112000E001
:101D60003846CDE9000106A90EA8FFF7A1FCDDE980
:101D70000F010E9A0391002104910092BA462107A7
:101D80000CD40399514500DA8A46BAF1010F05DDFA
:101D9000009AAAF10101515C302908D0B84202DA58
:101DA00010F1040F06DA0121CDE9011015E0AAF1C6
:101DB0000101E9E7002805DC049901440491AAEB3C
:101DC000000102E0411C514500DD8A460499401A99
:101DD000401C01904FF000400290200704D401986D
:101DE000504501DBCDF8048000208DF84F000298AB
:101DF0000DF14F07B0F1004F25D02B200E90029827
:101E00004FF0020800280CDA404202902D200E907C
:101E100007E00A210298FEF764FA3031029007F8D1
:101E2000011DB8F10001A8F10108F2DC02980028B8
:101E3000EFD1791E0E980870307800F0200040F045
:101E4000450007F8020D12A8C01B00F107081498FE
:101E5000007800B1012000EB0A01019801EBE0716C
:101E600005984144401A401E0590E00306D45B46A5
:101E70002146179A059800F05DF8054414980078FB
:101E800018B15A46179990476D1CE00324D55B465C
:101E90002146179A059800F04DF805441CE0049877
:101EA000002807DBDDE90301884203DD0098405C80
:101EB000179901E0179930205A469047049805F188
:101EC0000105401C04900198401E019004D12E2071
:101ED0005A46179990476D1CBAF10001AAF1010A00
:101EE000DDDC05E017F8010B5A46179990476D1C89
:101EF000B8F10001A8F10108F4DC5B462146179A0D
:101F00000598ABE62D0000002B000000200000002B
:101F10002DE9F041044600251E461746880404D4E6
:101F200005E039462020B0476D1C641EF9D52846CF
:101F3000BDE8F0812DE9F041044600251E4690469B
:101F4000C80301D5302700E02027880404D505E028
:101F500041463846B0476D1C641EF9D52846BDE899
:101F6000F081000070B50446064DE1B22846FFF747
:101F700079FB80212846FFF70FFB0028F9D0204687
:101F800070BD00000048004010B5002821D0114B62
:101F90000022001F196803E0814203D80A464968FD
:101FA0000029F9D152B11368841A9C4204D1006807
:101FB00018441060104602E0506000E0186039B12B
:101FC00002680B1A934203D10B681A4402604968F5
:101FD000416010BD2000002010B500210022084BF8
:101FE000FE2401EB410003F8104003EB4000427077
:101FF0008270C27002714271491C0229F1DB10BD6E
:1020000058000020072302224FF4A8710820FEF791
:1020100049FCFEF797FBFEF7A1FCFFF78BFAFEF7F2
:10202000D5FCFEF745FDFEF7DFFCFCE7F0B50B3015
:10203000154D20F007010024144A0FE003688B427D
:102040000BD38B4205D95E1A43184768C3E9006772
:1020500000E04368136002C004E0021D106800281D
:10206000ECD12046002802D1286808B10020F0BD3C
:10207000064A07481060074A121A22F00702C0E910
:10208000002401202860D7E7240000202000002041
:102090007C000020780200200000000099C50000AC
:1020A000ABCE0000320B0000CFD80000561D000060
:1020B00064160000FDD3000007F400009E3100000C
:1020C000AC3A000035FF0000C82C000051E90000C8
:1020D00063E20000FA27000097AD00000E680000E0
:1020E0003C630000A5A6000058750000C1B00000C8
:1020F000F3BB00006A7E000090590000099C0000BC
:102100003B970000A25200005F810000C64400001F
:10211000F44F00006D8A00002E5B0000B79E0000A7
:10212000859500001C500000E18300007846000007
:102130004A4D0000D388000029AF0000B06A0000BB
:10214000826100001BA40000E67700007FB200005F
:102150004DB90000D47C0000B9F600002033000027
:10216000123800008BFD0000762E0000EFEB00001F
:10217000DDE0000044250000BE02000027C700008B
:1021800015CC00008C09000071DA0000E81F000087
:10219000DA14000043D10000C5F300005C360000F3
:1021A0006E3D0000F7F800000A2B000093EE0000DF
:1021B000A1E5000038200000C20700005BC200005B
:1021C00069C90000F00C00000DDF0000941A000047
:1021D000A61100003FD40000525E0000CB9B00001F
:1021E000F9900000605500009D8600000443000047
:1021F00036480000AF8D000055AA0000CC6F0000EB
:10220000FE64000067A100009A72000003B700009E
:1022100031BC0000A8790000EBA80000726D00003E
:1022200040660000D9A3000024700000BDB5000086
:102230008FBE0000167B0000EC5C0000759900006A
:1022400047920000DE57000023840000BA410000DE
:10225000884A0000118F00007C050000E5C00000E6
:10226000D7CB00004E0E0000B3DD00002A1800009E
:102270001813000081D600007BF10000E23400005A
:10228000D03F000049FA0000B42900002DEC000006
:102290001FE700008622000013A200008A670000EA
:1022A000B86C000021A90000DC7A000045BF0000E6
:1022B00077B40000EE710000145600008D9300000A
:1022C000BF980000265D0000DB8E0000424B00003E
:1022D00070400000E9850000840F00001DCA000066
:1022E0002FC10000B60400004BD70000D21200003E
:1022F000E019000079DC000083FB00001A3E0000BA
:1023000028350000B1F000004C230000D5E60000A5
:10231000E7ED00007E2800003DF90000A43C00002D
:10232000963700000FF20000F22100006BE400007D
:1023300059EF0000C02A00003A0D0000A3C80000B9
:1023400091C3000008060000F5D500006C100000E5
:102350005E1B0000C7DE0000AA540000339100009D
:10236000019A0000985F0000658C0000FC490000A5
:10237000CE42000057870000ADA000003465000089
:10238000066E00009FAB000062780000FBBD0000FD
:10239000C9B6000050730000D65100004F940000F1
:1023A0007D9F0000E45A000019890000804C000065
:1023B000B24700002B820000D1A500004860000059
:1023C0007A6B0000E3AE00001E7D000087B80000BD
:1023D000B5B300002C76000041FC0000D8390000A5
:1023E000EA32000073F700008E24000017E10000BD
:1023F00025EA0000BC2F000046080000DFCD0000E9
:10240000EDC600007403000089D000001015000024
:10241000221E0000BBDB0000F80A000061CF0000B4
:1024200053C40000CA01000037D20000AE170000FC
:102430009C1C000005D90000FFFE0000663B000068
:1024400054300000CDF5000030260000A9E3000064
:102450009BE80000022D00006FA70000F66200005C
:10246000C46900005DAC0000A07F000039BA000024
:102470000BB100009274000068530000F196000058
:10248000C39D00005A580000A78B00003E4E00007C
:102490000C45000095800000B824000800000020D2
:1024A0002800000090160008E02400082800002002
:1024B00050060000A01600080000000000A0000068
:1024C00000000000000000000102030401020304F8
:1024D00006070809000000000000000000000000DE
:04000005080001AD41
:00000001FF
